{
  "_format": "hh-sol-artifact-1",
  "contractName": "HealthVault",
  "sourceName": "contracts/HealthVault.sol",
  "abi": [
    {
      "inputs": [],
      "name": "GatewayNotConfigured",
      "type": "error"
    },
    {
      "inputs": [],
      "name": "RecordNotFound",
      "type": "error"
    },
    {
      "inputs": [],
      "name": "Unauthorized",
      "type": "error"
    },
    {
      "inputs": [
        {
          "internalType": "address",
          "name": "caller",
          "type": "address"
        }
      ],
      "name": "UnauthorizedGateway",
      "type": "error"
    },
    {
      "inputs": [
        {
          "internalType": "uint256",
          "name": "requestId",
          "type": "uint256"
        }
      ],
      "name": "UnknownRequest",
      "type": "error"
    },
    {
      "anonymous": false,
      "inputs": [
        {
          "indexed": true,
          "internalType": "address",
          "name": "patient",
          "type": "address"
        },
        {
          "indexed": true,
          "internalType": "address",
          "name": "doctor",
          "type": "address"
        },
        {
          "indexed": false,
          "internalType": "bool",
          "name": "granted",
          "type": "bool"
        }
      ],
      "name": "AccessUpdated",
      "type": "event"
    },
    {
      "anonymous": false,
      "inputs": [
        {
          "indexed": true,
          "internalType": "uint256",
          "name": "id",
          "type": "uint256"
        },
        {
          "indexed": true,
          "internalType": "address",
          "name": "owner",
          "type": "address"
        },
        {
          "indexed": false,
          "internalType": "string",
          "name": "cid",
          "type": "string"
        }
      ],
      "name": "RecordCreated",
      "type": "event"
    },
    {
      "anonymous": false,
      "inputs": [
        {
          "indexed": true,
          "internalType": "uint256",
          "name": "id",
          "type": "uint256"
        },
        {
          "indexed": true,
          "internalType": "address",
          "name": "requester",
          "type": "address"
        },
        {
          "indexed": false,
          "internalType": "uint16",
          "name": "plainRisk",
          "type": "uint16"
        }
      ],
      "name": "RiskDecrypted",
      "type": "event"
    },
    {
      "inputs": [
        {
          "internalType": "uint256",
          "name": "id",
          "type": "uint256"
        },
        {
          "internalType": "euint16",
          "name": "delta",
          "type": "bytes32"
        }
      ],
      "name": "addRiskDelta",
      "outputs": [],
      "stateMutability": "nonpayable",
      "type": "function"
    },
    {
      "inputs": [
        {
          "internalType": "string",
          "name": "cid",
          "type": "string"
        },
        {
          "internalType": "euint16",
          "name": "encAllergy",
          "type": "bytes32"
        },
        {
          "internalType": "euint16",
          "name": "encRisk",
          "type": "bytes32"
        }
      ],
      "name": "createRecord",
      "outputs": [],
      "stateMutability": "nonpayable",
      "type": "function"
    },
    {
      "inputs": [
        {
          "internalType": "string",
          "name": "cid",
          "type": "string"
        },
        {
          "internalType": "externalEuint16",
          "name": "encAllergy",
          "type": "bytes32"
        },
        {
          "internalType": "externalEuint16",
          "name": "encRisk",
          "type": "bytes32"
        }
      ],
      "name": "createRecordFromExternal",
      "outputs": [],
      "stateMutability": "nonpayable",
      "type": "function"
    },
    {
      "inputs": [],
      "name": "gatewayAddress",
      "outputs": [
        {
          "internalType": "address",
          "name": "",
          "type": "address"
        }
      ],
      "stateMutability": "view",
      "type": "function"
    },
    {
      "inputs": [
        {
          "internalType": "address",
          "name": "doctor",
          "type": "address"
        },
        {
          "internalType": "bool",
          "name": "isGranted",
          "type": "bool"
        }
      ],
      "name": "grantAccess",
      "outputs": [],
      "stateMutability": "nonpayable",
      "type": "function"
    },
    {
      "inputs": [
        {
          "internalType": "address",
          "name": "",
          "type": "address"
        },
        {
          "internalType": "address",
          "name": "",
          "type": "address"
        }
      ],
      "name": "granted",
      "outputs": [
        {
          "internalType": "bool",
          "name": "",
          "type": "bool"
        }
      ],
      "stateMutability": "view",
      "type": "function"
    },
    {
      "inputs": [],
      "name": "nextId",
      "outputs": [
        {
          "internalType": "uint256",
          "name": "",
          "type": "uint256"
        }
      ],
      "stateMutability": "view",
      "type": "function"
    },
    {
      "inputs": [
        {
          "internalType": "uint256",
          "name": "requestId",
          "type": "uint256"
        },
        {
          "internalType": "uint16",
          "name": "plainRisk",
          "type": "uint16"
        }
      ],
      "name": "onRiskDecrypted",
      "outputs": [
        {
          "internalType": "bool",
          "name": "",
          "type": "bool"
        }
      ],
      "stateMutability": "nonpayable",
      "type": "function"
    },
    {
      "inputs": [],
      "name": "protocolId",
      "outputs": [
        {
          "internalType": "uint256",
          "name": "",
          "type": "uint256"
        }
      ],
      "stateMutability": "pure",
      "type": "function"
    },
    {
      "inputs": [
        {
          "internalType": "uint256",
          "name": "",
          "type": "uint256"
        }
      ],
      "name": "records",
      "outputs": [
        {
          "internalType": "address",
          "name": "owner",
          "type": "address"
        },
        {
          "internalType": "string",
          "name": "cid",
          "type": "string"
        },
        {
          "internalType": "euint16",
          "name": "allergyCode",
          "type": "bytes32"
        },
        {
          "internalType": "euint16",
          "name": "riskScore",
          "type": "bytes32"
        },
        {
          "internalType": "uint256",
          "name": "createdAt",
          "type": "uint256"
        }
      ],
      "stateMutability": "view",
      "type": "function"
    },
    {
      "inputs": [
        {
          "internalType": "uint256",
          "name": "id",
          "type": "uint256"
        }
      ],
      "name": "requestRiskDecrypt",
      "outputs": [
        {
          "internalType": "uint256",
          "name": "requestId",
          "type": "uint256"
        }
      ],
      "stateMutability": "nonpayable",
      "type": "function"
    }
  ],
  "bytecode": "0x608060405234801561000f575f5ffd5b5061002c6100216100cd60201b60201c565b6101a360201b60201c565b5f73ffffffffffffffffffffffffffffffffffffffff167333347831500f1e73f0cccbb95c9f86b94d7b112373ffffffffffffffffffffffffffffffffffffffff16036100a5576040517f11da049600000000000000000000000000000000000000000000000000000000815260040160405180910390fd5b6100c87333347831500f1e73f0cccbb95c9f86b94d7b11236101b560201b60201c565b610400565b6100d5610384565b60405180608001604052807350157cffd6bbfa2dece204a89ec419c23ef5755d73ffffffffffffffffffffffffffffffffffffffff16815260200173cd3ab3bd6bcc0c0bf3e27912a92043e817b1cf6973ffffffffffffffffffffffffffffffffffffffff16815260200173a02cda4ca3a71d7c46997716f4283aa851c2881273ffffffffffffffffffffffffffffffffffffffff168152602001731364cbbf2cdf5032c47d8226a6f6fbd2afcdacac73ffffffffffffffffffffffffffffffffffffffff16815250905090565b6101b28161020660201b60201c565b50565b806101c461033160201b60201c565b5f015f6101000a81548173ffffffffffffffffffffffffffffffffffffffff021916908373ffffffffffffffffffffffffffffffffffffffff16021790555050565b5f61021561035d60201b60201c565b9050815f0151815f015f6101000a81548173ffffffffffffffffffffffffffffffffffffffff021916908373ffffffffffffffffffffffffffffffffffffffff1602179055508160200151816001015f6101000a81548173ffffffffffffffffffffffffffffffffffffffff021916908373ffffffffffffffffffffffffffffffffffffffff1602179055508160400151816002015f6101000a81548173ffffffffffffffffffffffffffffffffffffffff021916908373ffffffffffffffffffffffffffffffffffffffff1602179055508160600151816003015f6101000a81548173ffffffffffffffffffffffffffffffffffffffff021916908373ffffffffffffffffffffffffffffffffffffffff1602179055505050565b5f5f7ff07f0bc8ecdab8c1f3aa0f39568bd2f561c1662727591d57f7db71bc4466e5f990508091505090565b5f7f9e7b61f58c47dc699ac88507c4f5bb9f121c03808c5676a8078fe583e4649700905090565b60405180608001604052805f73ffffffffffffffffffffffffffffffffffffffff1681526020015f73ffffffffffffffffffffffffffffffffffffffff1681526020015f73ffffffffffffffffffffffffffffffffffffffff1681526020015f73ffffffffffffffffffffffffffffffffffffffff1681525090565b611d118061040d5f395ff3fe608060405234801561000f575f5ffd5b50600436106100a7575f3560e01c806379c1d2931161006f57806379c1d293146101655780638b851b9514610181578063da1f12ab1461019f578063e4233301146101bd578063e80b4a5f146101ed578063fd7fe1151461021d576100a7565b8063067aba59146100ab57806334461067146100c757806347e3fbc9146100fb57806361b8ce8c1461012b57806376a91c8714610149575b5f5ffd5b6100c560048036038101906100c091906110ec565b610239565b005b6100e160048036038101906100dc9190611190565b610257565b6040516100f2959493929190611299565b60405180910390f35b61011560048036038101906101109190611190565b61032e565b60405161012291906112f1565b60405180910390f35b6101336105ad565b60405161014091906112f1565b60405180910390f35b610163600480360381019061015e9190611334565b6105b2565b005b61017f600480360381019061017a9190611372565b610784565b005b610189610798565b60405161019691906113e3565b60405180910390f35b6101a76107a6565b6040516101b491906112f1565b60405180910390f35b6101d760048036038101906101d29190611433565b6107b4565b6040516101e4919061148b565b60405180910390f35b610207600480360381019061020291906114ce565b6109c3565b604051610214919061148b565b60405180910390f35b61023760048036038101906102329190611536565b6109ed565b005b5f8290505f82905061024e3387878585610ae5565b50505050505050565b6001602052805f5260405f205f91509050805f015f9054906101000a900473ffffffffffffffffffffffffffffffffffffffff169080600101805461029b906115a1565b80601f01602080910402602001604051908101604052809291908181526020018280546102c7906115a1565b80156103125780601f106102e957610100808354040283529160200191610312565b820191905f5260205f20905b8154815290600101906020018083116102f557829003601f168201915b5050505050908060020154908060030154908060040154905085565b5f5f60015f8481526020019081526020015f2090505f73ffffffffffffffffffffffffffffffffffffffff16815f015f9054906101000a900473ffffffffffffffffffffffffffffffffffffffff1673ffffffffffffffffffffffffffffffffffffffff16036103ca576040517f3e07f1a100000000000000000000000000000000000000000000000000000000815260040160405180910390fd5b5f815f015f9054906101000a900473ffffffffffffffffffffffffffffffffffffffff1690508073ffffffffffffffffffffffffffffffffffffffff163373ffffffffffffffffffffffffffffffffffffffff16141580156104ae575060025f8273ffffffffffffffffffffffffffffffffffffffff1673ffffffffffffffffffffffffffffffffffffffff1681526020019081526020015f205f3373ffffffffffffffffffffffffffffffffffffffff1673ffffffffffffffffffffffffffffffffffffffff1681526020019081526020015f205f9054906101000a900460ff16155b156104e5576040517f82b4290000000000000000000000000000000000000000000000000000000000815260040160405180910390fd5b5f6104f38360030154610c59565b90506105168163e423330160e01b5f61012c4261051091906115fe565b5f610cce565b935060405180604001604052808681526020013373ffffffffffffffffffffffffffffffffffffffff1681525060035f8681526020019081526020015f205f820151815f01556020820151816001015f6101000a81548173ffffffffffffffffffffffffffffffffffffffff021916908373ffffffffffffffffffffffffffffffffffffffff160217905550905050505050919050565b5f5481565b5f60015f8481526020019081526020015f2090505f73ffffffffffffffffffffffffffffffffffffffff16815f015f9054906101000a900473ffffffffffffffffffffffffffffffffffffffff1673ffffffffffffffffffffffffffffffffffffffff160361064d576040517f3e07f1a100000000000000000000000000000000000000000000000000000000815260040160405180910390fd5b5f815f015f9054906101000a900473ffffffffffffffffffffffffffffffffffffffff1690508073ffffffffffffffffffffffffffffffffffffffff163373ffffffffffffffffffffffffffffffffffffffff1614158015610731575060025f8273ffffffffffffffffffffffffffffffffffffffff1673ffffffffffffffffffffffffffffffffffffffff1681526020019081526020015f205f3373ffffffffffffffffffffffffffffffffffffffff1673ffffffffffffffffffffffffffffffffffffffff1681526020019081526020015f205f9054906101000a900460ff16155b15610768576040517f82b4290000000000000000000000000000000000000000000000000000000000815260040160405180910390fd5b610776826003015484610dd5565b826003018190555050505050565b6107913385858585610ae5565b5050505050565b5f6107a1610e1b565b905090565b5f6107af610e4b565b905090565b5f6107bd610e1b565b73ffffffffffffffffffffffffffffffffffffffff163373ffffffffffffffffffffffffffffffffffffffff161461082c57336040517f0d13fea300000000000000000000000000000000000000000000000000000000815260040161082391906113e3565b60405180910390fd5b5f60035f8581526020019081526020015f206040518060400160405290815f8201548152602001600182015f9054906101000a900473ffffffffffffffffffffffffffffffffffffffff1673ffffffffffffffffffffffffffffffffffffffff1673ffffffffffffffffffffffffffffffffffffffff168152505090505f73ffffffffffffffffffffffffffffffffffffffff16816020015173ffffffffffffffffffffffffffffffffffffffff160361091d57836040517f1f79bbe700000000000000000000000000000000000000000000000000000000815260040161091491906112f1565b60405180910390fd5b60035f8581526020019081526020015f205f5f82015f9055600182015f6101000a81549073ffffffffffffffffffffffffffffffffffffffff02191690555050806020015173ffffffffffffffffffffffffffffffffffffffff16815f01517f9723472eaf6e4e3880778aff6024f8209a431053864269b709f9c4a08c2c3e4f856040516109ab9190611640565b60405180910390a35f8361ffff161191505092915050565b6002602052815f5260405f20602052805f5260405f205f915091509054906101000a900460ff1681565b8060025f3373ffffffffffffffffffffffffffffffffffffffff1673ffffffffffffffffffffffffffffffffffffffff1681526020019081526020015f205f8473ffffffffffffffffffffffffffffffffffffffff1673ffffffffffffffffffffffffffffffffffffffff1681526020019081526020015f205f6101000a81548160ff0219169083151502179055508173ffffffffffffffffffffffffffffffffffffffff163373ffffffffffffffffffffffffffffffffffffffff167f5b273ba4eb5db97af8506cc6e94cd82ed91395089a5c5012479f42b23d8248ee83604051610ad9919061148b565b60405180910390a35050565b5f5f5490506040518060a001604052808773ffffffffffffffffffffffffffffffffffffffff16815260200186868080601f0160208091040260200160405190810160405280939291908181526020018383808284375f81840152601f19601f8201169050808301925050505050505081526020018481526020018381526020014281525060015f8381526020019081526020015f205f820151815f015f6101000a81548173ffffffffffffffffffffffffffffffffffffffff021916908373ffffffffffffffffffffffffffffffffffffffff1602179055506020820151816001019081610bd49190611826565b506040820151816002015560608201518160030155608082015181600401559050508573ffffffffffffffffffffffffffffffffffffffff16817f99a9454438287bd513ed7da46fc0ff0cabc6b573eeafb583a59e01bc2e52ef908787604051610c3f92919061192f565b60405180910390a3600181015f8190555095945050505050565b6060600167ffffffffffffffff811115610c7657610c75611659565b5b604051908082528060200260200182016040528015610ca45781602001602082028036833780820191505090505b509050815f1c815f81518110610cbd57610cbc611951565b5b602002602001018181525050919050565b5f5f610cd8610e1b565b90505f73ffffffffffffffffffffffffffffffffffffffff168173ffffffffffffffffffffffffffffffffffffffff1603610d48576040517f08c379a0000000000000000000000000000000000000000000000000000000008152600401610d3f906119c8565b60405180910390fd5b8073ffffffffffffffffffffffffffffffffffffffff16634c0d927788888888886040518663ffffffff1660e01b8152600401610d89959493929190611ad7565b6020604051808303815f875af1158015610da5573d5f5f3e3d5ffd5b505050506040513d601f19601f82011682018060405250810190610dc99190611b43565b91505095945050505050565b5f610ddf83610e54565b610def57610dec5f610e62565b92505b610df882610e54565b610e0857610e055f610e62565b91505b610e1383835f610e79565b905092915050565b5f610e24610f4a565b5f015f9054906101000a900473ffffffffffffffffffffffffffffffffffffffff16905090565b5f612711905090565b5f5f5f1b8214159050919050565b5f610e728261ffff166003610f76565b9050919050565b5f5f8215610e8d57600160f81b9050610e94565b5f60f81b90505b5f610e9d611029565b9050806001015f9054906101000a900473ffffffffffffffffffffffffffffffffffffffff1673ffffffffffffffffffffffffffffffffffffffff1663117b2f388787856040518463ffffffff1660e01b8152600401610eff93929190611bb7565b6020604051808303815f875af1158015610f1b573d5f5f3e3d5ffd5b505050506040513d601f19601f82011682018060405250810190610f3f9190611c16565b925050509392505050565b5f5f7ff07f0bc8ecdab8c1f3aa0f39568bd2f561c1662727591d57f7db71bc4466e5f990508091505090565b5f5f610f80611029565b9050806001015f9054906101000a900473ffffffffffffffffffffffffffffffffffffffff1673ffffffffffffffffffffffffffffffffffffffff16639cd07acb85856040518363ffffffff1660e01b8152600401610fe0929190611cb4565b6020604051808303815f875af1158015610ffc573d5f5f3e3d5ffd5b505050506040513d601f19601f820116820180604052508101906110209190611c16565b91505092915050565b5f7f9e7b61f58c47dc699ac88507c4f5bb9f121c03808c5676a8078fe583e4649700905090565b5f5ffd5b5f5ffd5b5f5ffd5b5f5ffd5b5f5ffd5b5f5f83601f84011261107957611078611058565b5b8235905067ffffffffffffffff8111156110965761109561105c565b5b6020830191508360018202830111156110b2576110b1611060565b5b9250929050565b5f819050919050565b6110cb816110b9565b81146110d5575f5ffd5b50565b5f813590506110e6816110c2565b92915050565b5f5f5f5f6060858703121561110457611103611050565b5b5f85013567ffffffffffffffff81111561112157611120611054565b5b61112d87828801611064565b94509450506020611140878288016110d8565b9250506040611151878288016110d8565b91505092959194509250565b5f819050919050565b61116f8161115d565b8114611179575f5ffd5b50565b5f8135905061118a81611166565b92915050565b5f602082840312156111a5576111a4611050565b5b5f6111b28482850161117c565b91505092915050565b5f73ffffffffffffffffffffffffffffffffffffffff82169050919050565b5f6111e4826111bb565b9050919050565b6111f4816111da565b82525050565b5f81519050919050565b5f82825260208201905092915050565b8281835e5f83830152505050565b5f601f19601f8301169050919050565b5f61123c826111fa565b6112468185611204565b9350611256818560208601611214565b61125f81611222565b840191505092915050565b5f611274826110b9565b9050919050565b6112848161126a565b82525050565b6112938161115d565b82525050565b5f60a0820190506112ac5f8301886111eb565b81810360208301526112be8187611232565b90506112cd604083018661127b565b6112da606083018561127b565b6112e7608083018461128a565b9695505050505050565b5f6020820190506113045f83018461128a565b92915050565b611313816110b9565b811461131d575f5ffd5b50565b5f8135905061132e8161130a565b92915050565b5f5f6040838503121561134a57611349611050565b5b5f6113578582860161117c565b925050602061136885828601611320565b9150509250929050565b5f5f5f5f6060858703121561138a57611389611050565b5b5f85013567ffffffffffffffff8111156113a7576113a6611054565b5b6113b387828801611064565b945094505060206113c687828801611320565b92505060406113d787828801611320565b91505092959194509250565b5f6020820190506113f65f8301846111eb565b92915050565b5f61ffff82169050919050565b611412816113fc565b811461141c575f5ffd5b50565b5f8135905061142d81611409565b92915050565b5f5f6040838503121561144957611448611050565b5b5f6114568582860161117c565b92505060206114678582860161141f565b9150509250929050565b5f8115159050919050565b61148581611471565b82525050565b5f60208201905061149e5f83018461147c565b92915050565b6114ad816111da565b81146114b7575f5ffd5b50565b5f813590506114c8816114a4565b92915050565b5f5f604083850312156114e4576114e3611050565b5b5f6114f1858286016114ba565b9250506020611502858286016114ba565b9150509250929050565b61151581611471565b811461151f575f5ffd5b50565b5f813590506115308161150c565b92915050565b5f5f6040838503121561154c5761154b611050565b5b5f611559858286016114ba565b925050602061156a85828601611522565b9150509250929050565b7f4e487b71000000000000000000000000000000000000000000000000000000005f52602260045260245ffd5b5f60028204905060018216806115b857607f821691505b6020821081036115cb576115ca611574565b5b50919050565b7f4e487b71000000000000000000000000000000000000000000000000000000005f52601160045260245ffd5b5f6116088261115d565b91506116138361115d565b925082820190508082111561162b5761162a6115d1565b5b92915050565b61163a816113fc565b82525050565b5f6020820190506116535f830184611631565b92915050565b7f4e487b71000000000000000000000000000000000000000000000000000000005f52604160045260245ffd5b5f819050815f5260205f209050919050565b5f6020601f8301049050919050565b5f82821b905092915050565b5f600883026116e27fffffffffffffffffffffffffffffffffffffffffffffffffffffffffffffffff826116a7565b6116ec86836116a7565b95508019841693508086168417925050509392505050565b5f819050919050565b5f61172761172261171d8461115d565b611704565b61115d565b9050919050565b5f819050919050565b6117408361170d565b61175461174c8261172e565b8484546116b3565b825550505050565b5f5f905090565b61176b61175c565b611776818484611737565b505050565b5b818110156117995761178e5f82611763565b60018101905061177c565b5050565b601f8211156117de576117af81611686565b6117b884611698565b810160208510156117c7578190505b6117db6117d385611698565b83018261177b565b50505b505050565b5f82821c905092915050565b5f6117fe5f19846008026117e3565b1980831691505092915050565b5f61181683836117ef565b9150826002028217905092915050565b61182f826111fa565b67ffffffffffffffff81111561184857611847611659565b5b61185282546115a1565b61185d82828561179d565b5f60209050601f83116001811461188e575f841561187c578287015190505b611886858261180b565b8655506118ed565b601f19841661189c86611686565b5f5b828110156118c35784890151825560018201915060208501945060208101905061189e565b868310156118e057848901516118dc601f8916826117ef565b8355505b6001600288020188555050505b505050505050565b828183375f83830152505050565b5f61190e8385611204565b935061191b8385846118f5565b61192483611222565b840190509392505050565b5f6020820190508181035f830152611948818486611903565b90509392505050565b7f4e487b71000000000000000000000000000000000000000000000000000000005f52603260045260245ffd5b7f47617465776179206e6f7420636f6e66696775726564000000000000000000005f82015250565b5f6119b2601683611204565b91506119bd8261197e565b602082019050919050565b5f6020820190508181035f8301526119df816119a6565b9050919050565b5f81519050919050565b5f82825260208201905092915050565b5f819050602082019050919050565b611a188161115d565b82525050565b5f611a298383611a0f565b60208301905092915050565b5f602082019050919050565b5f611a4b826119e6565b611a5581856119f0565b9350611a6083611a00565b805f5b83811015611a90578151611a778882611a1e565b9750611a8283611a35565b925050600181019050611a63565b5085935050505092915050565b5f7fffffffff0000000000000000000000000000000000000000000000000000000082169050919050565b611ad181611a9d565b82525050565b5f60a0820190508181035f830152611aef8188611a41565b9050611afe6020830187611ac8565b611b0b604083018661128a565b611b18606083018561128a565b611b25608083018461147c565b9695505050505050565b5f81519050611b3d81611166565b92915050565b5f60208284031215611b5857611b57611050565b5b5f611b6584828501611b2f565b91505092915050565b611b77816110b9565b82525050565b5f7fff0000000000000000000000000000000000000000000000000000000000000082169050919050565b611bb181611b7d565b82525050565b5f606082019050611bca5f830186611b6e565b611bd76020830185611b6e565b611be46040830184611ba8565b949350505050565b611bf5816110b9565b8114611bff575f5ffd5b50565b5f81519050611c1081611bec565b92915050565b5f60208284031215611c2b57611c2a611050565b5b5f611c3884828501611c02565b91505092915050565b7f4e487b71000000000000000000000000000000000000000000000000000000005f52602160045260245ffd5b60548110611c7f57611c7e611c41565b5b50565b5f819050611c8f82611c6e565b919050565b5f611c9e82611c82565b9050919050565b611cae81611c94565b82525050565b5f604082019050611cc75f83018561128a565b611cd46020830184611ca5565b939250505056fea2646970667358221220e7929dc6e740906b7402a095d54f2748a77a627ede6314464fea0578a08ee49d64736f6c634300081c0033",
  "linkReferences": {},
  "deployedLinkReferences": {}
}