{
  "_format": "hh-sol-artifact-1",
  "contractName": "HealthVault",
  "sourceName": "contracts/HealthVault.sol",
  "abi": [
    {
      "inputs": [],
      "name": "GatewayNotConfigured",
      "type": "error"
    },
    {
      "inputs": [],
      "name": "RecordNotFound",
      "type": "error"
    },
    {
      "inputs": [],
      "name": "Unauthorized",
      "type": "error"
    },
    {
      "inputs": [
        {
          "internalType": "address",
          "name": "caller",
          "type": "address"
        }
      ],
      "name": "UnauthorizedGateway",
      "type": "error"
    },
    {
      "inputs": [
        {
          "internalType": "uint256",
          "name": "requestId",
          "type": "uint256"
        }
      ],
      "name": "UnknownRequest",
      "type": "error"
    },
    {
      "anonymous": false,
      "inputs": [
        {
          "indexed": true,
          "internalType": "address",
          "name": "patient",
          "type": "address"
        },
        {
          "indexed": true,
          "internalType": "address",
          "name": "doctor",
          "type": "address"
        },
        {
          "indexed": false,
          "internalType": "bool",
          "name": "granted",
          "type": "bool"
        }
      ],
      "name": "AccessUpdated",
      "type": "event"
    },
    {
      "anonymous": false,
      "inputs": [
        {
          "indexed": true,
          "internalType": "uint256",
          "name": "id",
          "type": "uint256"
        },
        {
          "indexed": true,
          "internalType": "address",
          "name": "owner",
          "type": "address"
        },
        {
          "indexed": false,
          "internalType": "string",
          "name": "cid",
          "type": "string"
        }
      ],
      "name": "RecordCreated",
      "type": "event"
    },
    {
      "anonymous": false,
      "inputs": [
        {
          "indexed": true,
          "internalType": "uint256",
          "name": "id",
          "type": "uint256"
        },
        {
          "indexed": true,
          "internalType": "address",
          "name": "requester",
          "type": "address"
        },
        {
          "indexed": false,
          "internalType": "uint16",
          "name": "plainRisk",
          "type": "uint16"
        }
      ],
      "name": "RiskDecrypted",
      "type": "event"
    },
    {
      "inputs": [
        {
          "internalType": "uint256",
          "name": "id",
          "type": "uint256"
        },
        {
          "internalType": "euint16",
          "name": "delta",
          "type": "bytes32"
        }
      ],
      "name": "addRiskDelta",
      "outputs": [],
      "stateMutability": "nonpayable",
      "type": "function"
    },
    {
      "inputs": [
        {
          "internalType": "uint256",
          "name": "id",
          "type": "uint256"
        },
        {
          "internalType": "externalEuint16",
          "name": "delta",
          "type": "bytes32"
        },
        {
          "internalType": "bytes",
          "name": "proof",
          "type": "bytes"
        }
      ],
      "name": "addRiskDeltaFromExternal",
      "outputs": [],
      "stateMutability": "nonpayable",
      "type": "function"
    },
    {
      "inputs": [
        {
          "internalType": "string",
          "name": "cid",
          "type": "string"
        },
        {
          "internalType": "euint16",
          "name": "encAllergy",
          "type": "bytes32"
        },
        {
          "internalType": "euint16",
          "name": "encRisk",
          "type": "bytes32"
        }
      ],
      "name": "createRecord",
      "outputs": [],
      "stateMutability": "nonpayable",
      "type": "function"
    },
    {
      "inputs": [
        {
          "internalType": "string",
          "name": "cid",
          "type": "string"
        },
        {
          "internalType": "externalEuint16",
          "name": "encAllergy",
          "type": "bytes32"
        },
        {
          "internalType": "bytes",
          "name": "allergyProof",
          "type": "bytes"
        },
        {
          "internalType": "externalEuint16",
          "name": "encRisk",
          "type": "bytes32"
        },
        {
          "internalType": "bytes",
          "name": "riskProof",
          "type": "bytes"
        }
      ],
      "name": "createRecordFromExternal",
      "outputs": [],
      "stateMutability": "nonpayable",
      "type": "function"
    },
    {
      "inputs": [],
      "name": "gatewayAddress",
      "outputs": [
        {
          "internalType": "address",
          "name": "",
          "type": "address"
        }
      ],
      "stateMutability": "view",
      "type": "function"
    },
    {
      "inputs": [
        {
          "internalType": "address",
          "name": "doctor",
          "type": "address"
        },
        {
          "internalType": "bool",
          "name": "isGranted",
          "type": "bool"
        }
      ],
      "name": "grantAccess",
      "outputs": [],
      "stateMutability": "nonpayable",
      "type": "function"
    },
    {
      "inputs": [
        {
          "internalType": "address",
          "name": "",
          "type": "address"
        },
        {
          "internalType": "address",
          "name": "",
          "type": "address"
        }
      ],
      "name": "granted",
      "outputs": [
        {
          "internalType": "bool",
          "name": "",
          "type": "bool"
        }
      ],
      "stateMutability": "view",
      "type": "function"
    },
    {
      "inputs": [],
      "name": "nextId",
      "outputs": [
        {
          "internalType": "uint256",
          "name": "",
          "type": "uint256"
        }
      ],
      "stateMutability": "view",
      "type": "function"
    },
    {
      "inputs": [
        {
          "internalType": "uint256",
          "name": "requestId",
          "type": "uint256"
        },
        {
          "internalType": "uint16",
          "name": "plainRisk",
          "type": "uint16"
        }
      ],
      "name": "onRiskDecrypted",
      "outputs": [
        {
          "internalType": "bool",
          "name": "",
          "type": "bool"
        }
      ],
      "stateMutability": "nonpayable",
      "type": "function"
    },
    {
      "inputs": [],
      "name": "protocolId",
      "outputs": [
        {
          "internalType": "uint256",
          "name": "",
          "type": "uint256"
        }
      ],
      "stateMutability": "pure",
      "type": "function"
    },
    {
      "inputs": [
        {
          "internalType": "uint256",
          "name": "",
          "type": "uint256"
        }
      ],
      "name": "records",
      "outputs": [
        {
          "internalType": "address",
          "name": "owner",
          "type": "address"
        },
        {
          "internalType": "string",
          "name": "cid",
          "type": "string"
        },
        {
          "internalType": "euint16",
          "name": "allergyCode",
          "type": "bytes32"
        },
        {
          "internalType": "euint16",
          "name": "riskScore",
          "type": "bytes32"
        },
        {
          "internalType": "uint256",
          "name": "createdAt",
          "type": "uint256"
        }
      ],
      "stateMutability": "view",
      "type": "function"
    },
    {
      "inputs": [
        {
          "internalType": "uint256",
          "name": "id",
          "type": "uint256"
        }
      ],
      "name": "requestRiskDecrypt",
      "outputs": [
        {
          "internalType": "uint256",
          "name": "requestId",
          "type": "uint256"
        }
      ],
      "stateMutability": "nonpayable",
      "type": "function"
    }
  ],
  "bytecode": "0x608060405234801561000f575f5ffd5b5061002c6100216100cd60201b60201c565b6101a360201b60201c565b5f73ffffffffffffffffffffffffffffffffffffffff167333347831500f1e73f0cccbb95c9f86b94d7b112373ffffffffffffffffffffffffffffffffffffffff16036100a5576040517f11da049600000000000000000000000000000000000000000000000000000000815260040160405180910390fd5b6100c87333347831500f1e73f0cccbb95c9f86b94d7b11236101b560201b60201c565b610400565b6100d5610384565b60405180608001604052807350157cffd6bbfa2dece204a89ec419c23ef5755d73ffffffffffffffffffffffffffffffffffffffff16815260200173cd3ab3bd6bcc0c0bf3e27912a92043e817b1cf6973ffffffffffffffffffffffffffffffffffffffff16815260200173a02cda4ca3a71d7c46997716f4283aa851c2881273ffffffffffffffffffffffffffffffffffffffff168152602001731364cbbf2cdf5032c47d8226a6f6fbd2afcdacac73ffffffffffffffffffffffffffffffffffffffff16815250905090565b6101b28161020660201b60201c565b50565b806101c461033160201b60201c565b5f015f6101000a81548173ffffffffffffffffffffffffffffffffffffffff021916908373ffffffffffffffffffffffffffffffffffffffff16021790555050565b5f61021561035d60201b60201c565b9050815f0151815f015f6101000a81548173ffffffffffffffffffffffffffffffffffffffff021916908373ffffffffffffffffffffffffffffffffffffffff1602179055508160200151816001015f6101000a81548173ffffffffffffffffffffffffffffffffffffffff021916908373ffffffffffffffffffffffffffffffffffffffff1602179055508160400151816002015f6101000a81548173ffffffffffffffffffffffffffffffffffffffff021916908373ffffffffffffffffffffffffffffffffffffffff1602179055508160600151816003015f6101000a81548173ffffffffffffffffffffffffffffffffffffffff021916908373ffffffffffffffffffffffffffffffffffffffff1602179055505050565b5f5f7ff07f0bc8ecdab8c1f3aa0f39568bd2f561c1662727591d57f7db71bc4466e5f990508091505090565b5f7f9e7b61f58c47dc699ac88507c4f5bb9f121c03808c5676a8078fe583e4649700905090565b60405180608001604052805f73ffffffffffffffffffffffffffffffffffffffff1681526020015f73ffffffffffffffffffffffffffffffffffffffff1681526020015f73ffffffffffffffffffffffffffffffffffffffff1681526020015f73ffffffffffffffffffffffffffffffffffffffff1681525090565b6122148061040d5f395ff3fe608060405234801561000f575f5ffd5b50600436106100b2575f3560e01c80638b851b951161006f5780638b851b951461018c578063aab4b014146101aa578063da1f12ab146101c6578063e4233301146101e4578063e80b4a5f14610214578063fd7fe11514610244576100b2565b806334461067146100b657806347e3fbc9146100ea5780634b1bc2991461011a57806361b8ce8c1461013657806376a91c871461015457806379c1d29314610170575b5f5ffd5b6100d060048036038101906100cb919061139f565b610260565b6040516100e19594939291906114b1565b60405180910390f35b61010460048036038101906100ff919061139f565b610337565b6040516101119190611509565b60405180910390f35b610134600480360381019061012f91906115ad565b6105b6565b005b61013e6105e2565b60405161014b9190611509565b60405180910390f35b61016e60048036038101906101699190611648565b6105e7565b005b61018a600480360381019061018591906116db565b610602565b005b610194610616565b6040516101a1919061174c565b60405180910390f35b6101c460048036038101906101bf9190611765565b610624565b005b6101ce61065a565b6040516101db9190611509565b60405180910390f35b6101fe60048036038101906101f99190611873565b610668565b60405161020b91906118cb565b60405180910390f35b61022e6004803603810190610229919061190e565b610877565b60405161023b91906118cb565b60405180910390f35b61025e60048036038101906102599190611976565b6108a1565b005b6001602052805f5260405f205f91509050805f015f9054906101000a900473ffffffffffffffffffffffffffffffffffffffff16908060010180546102a4906119e1565b80601f01602080910402602001604051908101604052809291908181526020018280546102d0906119e1565b801561031b5780601f106102f25761010080835404028352916020019161031b565b820191905f5260205f20905b8154815290600101906020018083116102fe57829003601f168201915b5050505050908060020154908060030154908060040154905085565b5f5f60015f8481526020019081526020015f2090505f73ffffffffffffffffffffffffffffffffffffffff16815f015f9054906101000a900473ffffffffffffffffffffffffffffffffffffffff1673ffffffffffffffffffffffffffffffffffffffff16036103d3576040517f3e07f1a100000000000000000000000000000000000000000000000000000000815260040160405180910390fd5b5f815f015f9054906101000a900473ffffffffffffffffffffffffffffffffffffffff1690508073ffffffffffffffffffffffffffffffffffffffff163373ffffffffffffffffffffffffffffffffffffffff16141580156104b7575060025f8273ffffffffffffffffffffffffffffffffffffffff1673ffffffffffffffffffffffffffffffffffffffff1681526020019081526020015f205f3373ffffffffffffffffffffffffffffffffffffffff1673ffffffffffffffffffffffffffffffffffffffff1681526020019081526020015f205f9054906101000a900460ff16155b156104ee576040517f82b4290000000000000000000000000000000000000000000000000000000000815260040160405180910390fd5b5f6104fc8360030154610999565b905061051f8163e423330160e01b5f61012c426105199190611a3e565b5f610a0e565b935060405180604001604052808681526020013373ffffffffffffffffffffffffffffffffffffffff1681525060035f8681526020019081526020015f205f820151815f01556020820151816001015f6101000a81548173ffffffffffffffffffffffffffffffffffffffff021916908373ffffffffffffffffffffffffffffffffffffffff160217905550905050505050919050565b5f6105c085610b15565b90505f6105ce858585610cd1565b90506105da8282610d35565b505050505050565b5f5481565b5f6105f183610b15565b90506105fd8183610d35565b505050565b61060f3385858585610d71565b5050505050565b5f61061f610ee5565b905090565b5f610630878787610cd1565b90505f61063e858585610cd1565b905061064d338b8b8585610d71565b5050505050505050505050565b5f610663610f15565b905090565b5f610671610ee5565b73ffffffffffffffffffffffffffffffffffffffff163373ffffffffffffffffffffffffffffffffffffffff16146106e057336040517f0d13fea30000000000000000000000000000000000000000000000000000000081526004016106d7919061174c565b60405180910390fd5b5f60035f8581526020019081526020015f206040518060400160405290815f8201548152602001600182015f9054906101000a900473ffffffffffffffffffffffffffffffffffffffff1673ffffffffffffffffffffffffffffffffffffffff1673ffffffffffffffffffffffffffffffffffffffff168152505090505f73ffffffffffffffffffffffffffffffffffffffff16816020015173ffffffffffffffffffffffffffffffffffffffff16036107d157836040517f1f79bbe70000000000000000000000000000000000000000000000000000000081526004016107c89190611509565b60405180910390fd5b60035f8581526020019081526020015f205f5f82015f9055600182015f6101000a81549073ffffffffffffffffffffffffffffffffffffffff02191690555050806020015173ffffffffffffffffffffffffffffffffffffffff16815f01517f9723472eaf6e4e3880778aff6024f8209a431053864269b709f9c4a08c2c3e4f8560405161085f9190611a80565b60405180910390a35f8361ffff161191505092915050565b6002602052815f5260405f20602052805f5260405f205f915091509054906101000a900460ff1681565b8060025f3373ffffffffffffffffffffffffffffffffffffffff1673ffffffffffffffffffffffffffffffffffffffff1681526020019081526020015f205f8473ffffffffffffffffffffffffffffffffffffffff1673ffffffffffffffffffffffffffffffffffffffff1681526020019081526020015f205f6101000a81548160ff0219169083151502179055508173ffffffffffffffffffffffffffffffffffffffff163373ffffffffffffffffffffffffffffffffffffffff167f5b273ba4eb5db97af8506cc6e94cd82ed91395089a5c5012479f42b23d8248ee8360405161098d91906118cb565b60405180910390a35050565b6060600167ffffffffffffffff8111156109b6576109b5611a99565b5b6040519080825280602002602001820160405280156109e45781602001602082028036833780820191505090505b509050815f1c815f815181106109fd576109fc611ac6565b5b602002602001018181525050919050565b5f5f610a18610ee5565b90505f73ffffffffffffffffffffffffffffffffffffffff168173ffffffffffffffffffffffffffffffffffffffff1603610a88576040517f08c379a0000000000000000000000000000000000000000000000000000000008152600401610a7f90611b3d565b60405180910390fd5b8073ffffffffffffffffffffffffffffffffffffffff16634c0d927788888888886040518663ffffffff1660e01b8152600401610ac9959493929190611c4c565b6020604051808303815f875af1158015610ae5573d5f5f3e3d5ffd5b505050506040513d601f19601f82011682018060405250810190610b099190611cb8565b91505095945050505050565b5f60015f8381526020019081526020015f2090505f73ffffffffffffffffffffffffffffffffffffffff16815f015f9054906101000a900473ffffffffffffffffffffffffffffffffffffffff1673ffffffffffffffffffffffffffffffffffffffff1603610bb0576040517f3e07f1a100000000000000000000000000000000000000000000000000000000815260040160405180910390fd5b5f815f015f9054906101000a900473ffffffffffffffffffffffffffffffffffffffff1690508073ffffffffffffffffffffffffffffffffffffffff163373ffffffffffffffffffffffffffffffffffffffff1614158015610c94575060025f8273ffffffffffffffffffffffffffffffffffffffff1673ffffffffffffffffffffffffffffffffffffffff1681526020019081526020015f205f3373ffffffffffffffffffffffffffffffffffffffff1673ffffffffffffffffffffffffffffffffffffffff1681526020019081526020015f205f9054906101000a900460ff16155b15610ccb576040517f82b4290000000000000000000000000000000000000000000000000000000000815260040160405180910390fd5b50919050565b5f5f610d208585858080601f0160208091040260200160405190810160405280939291908181526020018383808284375f81840152601f19601f82011690508083019250505050505050610f1e565b9050610d2b81610f33565b9150509392505050565b5f610d438360030154610f33565b90505f610d4f83610f33565b9050610d63610d5e8383610f46565b610f33565b846003018190555050505050565b5f5f5490506040518060a001604052808773ffffffffffffffffffffffffffffffffffffffff16815260200186868080601f0160208091040260200160405190810160405280939291908181526020018383808284375f81840152601f19601f8201169050808301925050505050505081526020018481526020018381526020014281525060015f8381526020019081526020015f205f820151815f015f6101000a81548173ffffffffffffffffffffffffffffffffffffffff021916908373ffffffffffffffffffffffffffffffffffffffff1602179055506020820151816001019081610e609190611e83565b506040820151816002015560608201518160030155608082015181600401559050508573ffffffffffffffffffffffffffffffffffffffff16817f99a9454438287bd513ed7da46fc0ff0cabc6b573eeafb583a59e01bc2e52ef908787604051610ecb929190611f8c565b60405180910390a3600181015f8190555095945050505050565b5f610eee610f8c565b5f015f9054906101000a900473ffffffffffffffffffffffffffffffffffffffff16905090565b5f612711905090565b5f610f2b83836003610fb8565b905092915050565b5f610f3e82306110fa565b819050919050565b5f610f5083611194565b610f6057610f5d5f6111a2565b92505b610f6982611194565b610f7957610f765f6111a2565b91505b610f8483835f6111b9565b905092915050565b5f5f7ff07f0bc8ecdab8c1f3aa0f39568bd2f561c1662727591d57f7db71bc4466e5f990508091505090565b5f5f610fc261128a565b9050806001015f9054906101000a900473ffffffffffffffffffffffffffffffffffffffff1673ffffffffffffffffffffffffffffffffffffffff1663196d0b9b863387876040518563ffffffff1660e01b81526004016110269493929190612082565b6020604051808303815f875af1158015611042573d5f5f3e3d5ffd5b505050506040513d601f19601f8201168201806040525081019061106691906120f6565b9150805f015f9054906101000a900473ffffffffffffffffffffffffffffffffffffffff1673ffffffffffffffffffffffffffffffffffffffff16633e395cec83336040518363ffffffff1660e01b81526004016110c5929190612121565b5f604051808303815f87803b1580156110dc575f5ffd5b505af11580156110ee573d5f5f3e3d5ffd5b50505050509392505050565b5f61110361128a565b9050805f015f9054906101000a900473ffffffffffffffffffffffffffffffffffffffff1673ffffffffffffffffffffffffffffffffffffffff1663b9496b6284846040518363ffffffff1660e01b8152600401611162929190612121565b5f604051808303815f87803b158015611179575f5ffd5b505af115801561118b573d5f5f3e3d5ffd5b50505050505050565b5f5f5f1b8214159050919050565b5f6111b28261ffff1660036112b1565b9050919050565b5f5f82156111cd57600160f81b90506111d4565b5f60f81b90505b5f6111dd61128a565b9050806001015f9054906101000a900473ffffffffffffffffffffffffffffffffffffffff1673ffffffffffffffffffffffffffffffffffffffff1663117b2f388787856040518463ffffffff1660e01b815260040161123f93929190612182565b6020604051808303815f875af115801561125b573d5f5f3e3d5ffd5b505050506040513d601f19601f8201168201806040525081019061127f91906120f6565b925050509392505050565b5f7f9e7b61f58c47dc699ac88507c4f5bb9f121c03808c5676a8078fe583e4649700905090565b5f5f6112bb61128a565b9050806001015f9054906101000a900473ffffffffffffffffffffffffffffffffffffffff1673ffffffffffffffffffffffffffffffffffffffff16639cd07acb85856040518363ffffffff1660e01b815260040161131b9291906121b7565b6020604051808303815f875af1158015611337573d5f5f3e3d5ffd5b505050506040513d601f19601f8201168201806040525081019061135b91906120f6565b91505092915050565b5f5ffd5b5f5ffd5b5f819050919050565b61137e8161136c565b8114611388575f5ffd5b50565b5f8135905061139981611375565b92915050565b5f602082840312156113b4576113b3611364565b5b5f6113c18482850161138b565b91505092915050565b5f73ffffffffffffffffffffffffffffffffffffffff82169050919050565b5f6113f3826113ca565b9050919050565b611403816113e9565b82525050565b5f81519050919050565b5f82825260208201905092915050565b8281835e5f83830152505050565b5f601f19601f8301169050919050565b5f61144b82611409565b6114558185611413565b9350611465818560208601611423565b61146e81611431565b840191505092915050565b5f819050919050565b5f61148c82611479565b9050919050565b61149c81611482565b82525050565b6114ab8161136c565b82525050565b5f60a0820190506114c45f8301886113fa565b81810360208301526114d68187611441565b90506114e56040830186611493565b6114f26060830185611493565b6114ff60808301846114a2565b9695505050505050565b5f60208201905061151c5f8301846114a2565b92915050565b61152b81611479565b8114611535575f5ffd5b50565b5f8135905061154681611522565b92915050565b5f5ffd5b5f5ffd5b5f5ffd5b5f5f83601f84011261156d5761156c61154c565b5b8235905067ffffffffffffffff81111561158a57611589611550565b5b6020830191508360018202830111156115a6576115a5611554565b5b9250929050565b5f5f5f5f606085870312156115c5576115c4611364565b5b5f6115d28782880161138b565b94505060206115e387828801611538565b935050604085013567ffffffffffffffff81111561160457611603611368565b5b61161087828801611558565b925092505092959194509250565b61162781611479565b8114611631575f5ffd5b50565b5f813590506116428161161e565b92915050565b5f5f6040838503121561165e5761165d611364565b5b5f61166b8582860161138b565b925050602061167c85828601611634565b9150509250929050565b5f5f83601f84011261169b5761169a61154c565b5b8235905067ffffffffffffffff8111156116b8576116b7611550565b5b6020830191508360018202830111156116d4576116d3611554565b5b9250929050565b5f5f5f5f606085870312156116f3576116f2611364565b5b5f85013567ffffffffffffffff8111156117105761170f611368565b5b61171c87828801611686565b9450945050602061172f87828801611634565b925050604061174087828801611634565b91505092959194509250565b5f60208201905061175f5f8301846113fa565b92915050565b5f5f5f5f5f5f5f5f60a0898b03121561178157611780611364565b5b5f89013567ffffffffffffffff81111561179e5761179d611368565b5b6117aa8b828c01611686565b985098505060206117bd8b828c01611538565b965050604089013567ffffffffffffffff8111156117de576117dd611368565b5b6117ea8b828c01611558565b955095505060606117fd8b828c01611538565b935050608089013567ffffffffffffffff81111561181e5761181d611368565b5b61182a8b828c01611558565b92509250509295985092959890939650565b5f61ffff82169050919050565b6118528161183c565b811461185c575f5ffd5b50565b5f8135905061186d81611849565b92915050565b5f5f6040838503121561188957611888611364565b5b5f6118968582860161138b565b92505060206118a78582860161185f565b9150509250929050565b5f8115159050919050565b6118c5816118b1565b82525050565b5f6020820190506118de5f8301846118bc565b92915050565b6118ed816113e9565b81146118f7575f5ffd5b50565b5f81359050611908816118e4565b92915050565b5f5f6040838503121561192457611923611364565b5b5f611931858286016118fa565b9250506020611942858286016118fa565b9150509250929050565b611955816118b1565b811461195f575f5ffd5b50565b5f813590506119708161194c565b92915050565b5f5f6040838503121561198c5761198b611364565b5b5f611999858286016118fa565b92505060206119aa85828601611962565b9150509250929050565b7f4e487b71000000000000000000000000000000000000000000000000000000005f52602260045260245ffd5b5f60028204905060018216806119f857607f821691505b602082108103611a0b57611a0a6119b4565b5b50919050565b7f4e487b71000000000000000000000000000000000000000000000000000000005f52601160045260245ffd5b5f611a488261136c565b9150611a538361136c565b9250828201905080821115611a6b57611a6a611a11565b5b92915050565b611a7a8161183c565b82525050565b5f602082019050611a935f830184611a71565b92915050565b7f4e487b71000000000000000000000000000000000000000000000000000000005f52604160045260245ffd5b7f4e487b71000000000000000000000000000000000000000000000000000000005f52603260045260245ffd5b7f47617465776179206e6f7420636f6e66696775726564000000000000000000005f82015250565b5f611b27601683611413565b9150611b3282611af3565b602082019050919050565b5f6020820190508181035f830152611b5481611b1b565b9050919050565b5f81519050919050565b5f82825260208201905092915050565b5f819050602082019050919050565b611b8d8161136c565b82525050565b5f611b9e8383611b84565b60208301905092915050565b5f602082019050919050565b5f611bc082611b5b565b611bca8185611b65565b9350611bd583611b75565b805f5b83811015611c05578151611bec8882611b93565b9750611bf783611baa565b925050600181019050611bd8565b5085935050505092915050565b5f7fffffffff0000000000000000000000000000000000000000000000000000000082169050919050565b611c4681611c12565b82525050565b5f60a0820190508181035f830152611c648188611bb6565b9050611c736020830187611c3d565b611c8060408301866114a2565b611c8d60608301856114a2565b611c9a60808301846118bc565b9695505050505050565b5f81519050611cb281611375565b92915050565b5f60208284031215611ccd57611ccc611364565b5b5f611cda84828501611ca4565b91505092915050565b5f819050815f5260205f209050919050565b5f6020601f8301049050919050565b5f82821b905092915050565b5f60088302611d3f7fffffffffffffffffffffffffffffffffffffffffffffffffffffffffffffffff82611d04565b611d498683611d04565b95508019841693508086168417925050509392505050565b5f819050919050565b5f611d84611d7f611d7a8461136c565b611d61565b61136c565b9050919050565b5f819050919050565b611d9d83611d6a565b611db1611da982611d8b565b848454611d10565b825550505050565b5f5f905090565b611dc8611db9565b611dd3818484611d94565b505050565b5b81811015611df657611deb5f82611dc0565b600181019050611dd9565b5050565b601f821115611e3b57611e0c81611ce3565b611e1584611cf5565b81016020851015611e24578190505b611e38611e3085611cf5565b830182611dd8565b50505b505050565b5f82821c905092915050565b5f611e5b5f1984600802611e40565b1980831691505092915050565b5f611e738383611e4c565b9150826002028217905092915050565b611e8c82611409565b67ffffffffffffffff811115611ea557611ea4611a99565b5b611eaf82546119e1565b611eba828285611dfa565b5f60209050601f831160018114611eeb575f8415611ed9578287015190505b611ee38582611e68565b865550611f4a565b601f198416611ef986611ce3565b5f5b82811015611f2057848901518255600182019150602085019450602081019050611efb565b86831015611f3d5784890151611f39601f891682611e4c565b8355505b6001600288020188555050505b505050505050565b828183375f83830152505050565b5f611f6b8385611413565b9350611f78838584611f52565b611f8183611431565b840190509392505050565b5f6020820190508181035f830152611fa5818486611f60565b90509392505050565b611fb781611479565b82525050565b5f81519050919050565b5f82825260208201905092915050565b5f611fe182611fbd565b611feb8185611fc7565b9350611ffb818560208601611423565b61200481611431565b840191505092915050565b7f4e487b71000000000000000000000000000000000000000000000000000000005f52602160045260245ffd5b6054811061204d5761204c61200f565b5b50565b5f81905061205d8261203c565b919050565b5f61206c82612050565b9050919050565b61207c81612062565b82525050565b5f6080820190506120955f830187611fae565b6120a260208301866113fa565b81810360408301526120b48185611fd7565b90506120c36060830184612073565b95945050505050565b6120d581611479565b81146120df575f5ffd5b50565b5f815190506120f0816120cc565b92915050565b5f6020828403121561210b5761210a611364565b5b5f612118848285016120e2565b91505092915050565b5f6040820190506121345f830185611fae565b61214160208301846113fa565b9392505050565b5f7fff0000000000000000000000000000000000000000000000000000000000000082169050919050565b61217c81612148565b82525050565b5f6060820190506121955f830186611fae565b6121a26020830185611fae565b6121af6040830184612173565b949350505050565b5f6040820190506121ca5f8301856114a2565b6121d76020830184612073565b939250505056fea2646970667358221220501c07a09dcac04093c12833098b1833652294c7fdff53da7d4c81562375f54e64736f6c634300081c0033",
  "linkReferences": {},
  "deployedLinkReferences": {}
}