{
  "_format": "hh-sol-artifact-1",
  "contractName": "MockGateway",
  "sourceName": "contracts/mocks/MockGateway.sol",
  "abi": [
    {
      "anonymous": false,
      "inputs": [
        {
          "indexed": true,
          "internalType": "uint256",
          "name": "requestId",
          "type": "uint256"
        },
        {
          "indexed": false,
          "internalType": "bool",
          "name": "accepted",
          "type": "bool"
        }
      ],
      "name": "DecryptionFulfilled",
      "type": "event"
    },
    {
      "anonymous": false,
      "inputs": [
        {
          "indexed": true,
          "internalType": "uint256",
          "name": "requestId",
          "type": "uint256"
        },
        {
          "indexed": true,
          "internalType": "address",
          "name": "target",
          "type": "address"
        },
        {
          "indexed": false,
          "internalType": "uint256[]",
          "name": "handles",
          "type": "uint256[]"
        }
      ],
      "name": "DecryptionRequested",
      "type": "event"
    },
    {
      "inputs": [
        {
          "internalType": "uint256",
          "name": "requestId",
          "type": "uint256"
        },
        {
          "internalType": "uint16",
          "name": "plainRisk",
          "type": "uint16"
        }
      ],
      "name": "fulfill",
      "outputs": [
        {
          "internalType": "bool",
          "name": "accepted",
          "type": "bool"
        }
      ],
      "stateMutability": "nonpayable",
      "type": "function"
    },
    {
      "inputs": [],
      "name": "nextRequestId",
      "outputs": [
        {
          "internalType": "uint256",
          "name": "",
          "type": "uint256"
        }
      ],
      "stateMutability": "view",
      "type": "function"
    },
    {
      "inputs": [
        {
          "internalType": "uint256[]",
          "name": "ctsHandles",
          "type": "uint256[]"
        },
        {
          "internalType": "bytes4",
          "name": "callbackSelector",
          "type": "bytes4"
        },
        {
          "internalType": "uint256",
          "name": "userData",
          "type": "uint256"
        },
        {
          "internalType": "uint256",
          "name": "deadline",
          "type": "uint256"
        },
        {
          "internalType": "bool",
          "name": "keepInGateway",
          "type": "bool"
        }
      ],
      "name": "requestDecryption",
      "outputs": [
        {
          "internalType": "uint256",
          "name": "requestId",
          "type": "uint256"
        }
      ],
      "stateMutability": "nonpayable",
      "type": "function"
    },
    {
      "inputs": [
        {
          "internalType": "uint256",
          "name": "",
          "type": "uint256"
        }
      ],
      "name": "requests",
      "outputs": [
        {
          "internalType": "address",
          "name": "target",
          "type": "address"
        },
        {
          "internalType": "bytes4",
          "name": "callback",
          "type": "bytes4"
        },
        {
          "internalType": "uint256",
          "name": "userData",
          "type": "uint256"
        },
        {
          "internalType": "uint256",
          "name": "deadline",
          "type": "uint256"
        },
        {
          "internalType": "bool",
          "name": "keepInGateway",
          "type": "bool"
        }
      ],
      "stateMutability": "view",
      "type": "function"
    }
  ],
  "bytecode": "0x6080604052348015600e575f5ffd5b50610bb88061001c5f395ff3fe608060405234801561000f575f5ffd5b506004361061004a575f3560e01c80634c0d92771461004e5780636a84a9851461007e57806381d12c581461009c578063f9a6adbf146100d0575b5f5ffd5b610068600480360381019061006391906106fa565b610100565b604051610075919061079f565b60405180910390f35b6100866102e2565b604051610093919061079f565b60405180910390f35b6100b660048036038101906100b191906107b8565b6102e7565b6040516100c7959493929190610840565b60405180910390f35b6100ea60048036038101906100e591906108c8565b610350565b6040516100f79190610906565b60405180910390f35b5f5f5f8154809291906101129061094c565b9190505590506040518060c001604052803373ffffffffffffffffffffffffffffffffffffffff168152602001867bffffffffffffffffffffffffffffffffffffffffffffffffffffffff1916815260200185815260200184815260200183151581526020018888808060200260200160405190810160405280939291908181526020018383602002808284375f81840152601f19601f8201169050808301925050505050505081525060015f8381526020019081526020015f205f820151815f015f6101000a81548173ffffffffffffffffffffffffffffffffffffffff021916908373ffffffffffffffffffffffffffffffffffffffff1602179055506020820151815f0160146101000a81548163ffffffff021916908360e01c021790555060408201518160010155606082015181600201556080820151816003015f6101000a81548160ff02191690831515021790555060a082015181600401908051906020019061028392919061056e565b509050503373ffffffffffffffffffffffffffffffffffffffff16817f50101b98b6744b27283a7393cc5cd27287f9dfd45d7b0d3a81199bde5be0320689896040516102d0929190610a0b565b60405180910390a39695505050505050565b5f5481565b6001602052805f5260405f205f91509050805f015f9054906101000a900473ffffffffffffffffffffffffffffffffffffffff1690805f0160149054906101000a900460e01b90806001015490806002015490806003015f9054906101000a900460ff16905085565b5f5f60015f8581526020019081526020015f2090505f73ffffffffffffffffffffffffffffffffffffffff16815f015f9054906101000a900473ffffffffffffffffffffffffffffffffffffffff1673ffffffffffffffffffffffffffffffffffffffff16036103f5576040517f08c379a00000000000000000000000000000000000000000000000000000000081526004016103ec90610a87565b60405180910390fd5b5f5f825f015f9054906101000a900473ffffffffffffffffffffffffffffffffffffffff1673ffffffffffffffffffffffffffffffffffffffff16835f0160149054906101000a900460e01b8787604051602401610454929190610ab4565b604051602081830303815290604052907bffffffffffffffffffffffffffffffffffffffffffffffffffffffff19166020820180517bffffffffffffffffffffffffffffffffffffffffffffffffffffffff83818316178352505050506040516104be9190610b2d565b5f604051808303815f865af19150503d805f81146104f7576040519150601f19603f3d011682016040523d82523d5f602084013e6104fc565b606091505b509150915081801561050f575060208151145b801561052b57508080602001905181019061052a9190610b57565b5b9350857f60f8faaa3285874c7d67ed694a669eb58b145b94781823ee0d71914c4565abf68560405161055d9190610906565b60405180910390a250505092915050565b828054828255905f5260205f209081019282156105a8579160200282015b828111156105a757825182559160200191906001019061058c565b5b5090506105b591906105b9565b5090565b5b808211156105d0575f815f9055506001016105ba565b5090565b5f5ffd5b5f5ffd5b5f5ffd5b5f5ffd5b5f5ffd5b5f5f83601f8401126105fd576105fc6105dc565b5b8235905067ffffffffffffffff81111561061a576106196105e0565b5b602083019150836020820283011115610636576106356105e4565b5b9250929050565b5f7fffffffff0000000000000000000000000000000000000000000000000000000082169050919050565b6106718161063d565b811461067b575f5ffd5b50565b5f8135905061068c81610668565b92915050565b5f819050919050565b6106a481610692565b81146106ae575f5ffd5b50565b5f813590506106bf8161069b565b92915050565b5f8115159050919050565b6106d9816106c5565b81146106e3575f5ffd5b50565b5f813590506106f4816106d0565b92915050565b5f5f5f5f5f5f60a08789031215610714576107136105d4565b5b5f87013567ffffffffffffffff811115610731576107306105d8565b5b61073d89828a016105e8565b9650965050602061075089828a0161067e565b945050604061076189828a016106b1565b935050606061077289828a016106b1565b925050608061078389828a016106e6565b9150509295509295509295565b61079981610692565b82525050565b5f6020820190506107b25f830184610790565b92915050565b5f602082840312156107cd576107cc6105d4565b5b5f6107da848285016106b1565b91505092915050565b5f73ffffffffffffffffffffffffffffffffffffffff82169050919050565b5f61080c826107e3565b9050919050565b61081c81610802565b82525050565b61082b8161063d565b82525050565b61083a816106c5565b82525050565b5f60a0820190506108535f830188610813565b6108606020830187610822565b61086d6040830186610790565b61087a6060830185610790565b6108876080830184610831565b9695505050505050565b5f61ffff82169050919050565b6108a781610891565b81146108b1575f5ffd5b50565b5f813590506108c28161089e565b92915050565b5f5f604083850312156108de576108dd6105d4565b5b5f6108eb858286016106b1565b92505060206108fc858286016108b4565b9150509250929050565b5f6020820190506109195f830184610831565b92915050565b7f4e487b71000000000000000000000000000000000000000000000000000000005f52601160045260245ffd5b5f61095682610692565b91507fffffffffffffffffffffffffffffffffffffffffffffffffffffffffffffffff82036109885761098761091f565b5b600182019050919050565b5f82825260208201905092915050565b5f5ffd5b82818337505050565b5f6109bb8385610993565b93507f07ffffffffffffffffffffffffffffffffffffffffffffffffffffffffffffff8311156109ee576109ed6109a3565b5b6020830292506109ff8385846109a7565b82840190509392505050565b5f6020820190508181035f830152610a248184866109b0565b90509392505050565b5f82825260208201905092915050565b7f4d6f636b476174657761793a20756e6b6e6f776e2072657175657374000000005f82015250565b5f610a71601c83610a2d565b9150610a7c82610a3d565b602082019050919050565b5f6020820190508181035f830152610a9e81610a65565b9050919050565b610aae81610891565b82525050565b5f604082019050610ac75f830185610790565b610ad46020830184610aa5565b9392505050565b5f81519050919050565b5f81905092915050565b8281835e5f83830152505050565b5f610b0782610adb565b610b118185610ae5565b9350610b21818560208601610aef565b80840191505092915050565b5f610b388284610afd565b915081905092915050565b5f81519050610b51816106d0565b92915050565b5f60208284031215610b6c57610b6b6105d4565b5b5f610b7984828501610b43565b9150509291505056fea2646970667358221220664d8ee022ff8e7002359a80d770333622d794954d5699c588dbab60af41695564736f6c634300081c0033",
  "linkReferences": {},
  "deployedLinkReferences": {}
}